:020000040800F2
:10000000002D0020693F0008CF930008553F0008ED
:10001000553F0008553F0008553F0008000000000C
:100020000000000000000000000000007140000817
:10003000553F000800000000C93F0008D16B0008D0
:10004000CD420008CD420008CD420008CD42000854
:10005000CD420008CD420008CD420008CD42000844
:10006000CD420008CD420008CD420008CD42000834
:10007000CD420008CD420008CD420008CD42000824
:10008000CD420008CD420008CD420008CD42000814
:10009000CD420008CD420008CD420008CD42000804
:1000A000CD420008CD420008CD420008CD420008F4
:1000B000CD420008CD420008CD420008CD420008E4
:1000C000CD420008CD420008CD420008CD420008D4
:1000D000CD420008CD420008CD420008CD420008C4
:1000E000CD420008CD420008CD420008CD420008B4
:1000F000CD420008CD420008CD420008CD420008A4
:10010000CD420008CD420008CD420008CD42000893
:10011000CD420008CD420008CD420008CD42000883
:10012000CD420008CD420008CD420008CD42000873
:10013000CD420008CD420008CD420008CD42000863
:10014000CD420008CD420008CD420008CD42000853
:10015000CD420008CD420008CD420008CD42000843
:10016000CD420008CD420008CD420008CD42000833
:10017000CD420008CD420008CD420008CD42000823
:0C018000CD420008CD420008CD4200082E
:1001C00090F800F06DE9024520F007016FF0000C97
:1001D00010F0070491F820F040F049804FF000043F
:1001E0006FF00700D1E9002391F840F000F108001A
:1001F00082FA4CF2A4FA8CF283FA4CF3A2FA8CF352
:100200004BBBD1E9022382FA4CF200F10800A4FAB8
:100210008CF283FA4CF3A2FA8CF3E3B9D1E904230C
:1002200082FA4CF200F10800A4FA8CF283FA4CF343
:10023000A2FA8CF37BB9D1E9062301F1200182FAFD
:100240004CF200F10800A4FA8CF283FA4CF3A2FA03
:100250008CF3002BC6D0002A04BF04301A4612BA11
:10026000B2FA82F2FDE8024500EBD2007047D1E914
:10027000002304F00305C4F100004FEAC50514F0A3
:10028000040F91F840F00CFA05F562EA05021CBF74
:1002900063EA050362464FF00004A9E7000000008E
:1002A000A2EB0300704700BF02780B78012A28BF39
:1002B0009A42F5D16DE9044540EA0104CDE90267AF
:1002C0006FF0000C4FEA447212B380EA010414F09C
:1002D000070F6AD100F0070420F0070004F00305BF
:1002E00021F007014FEAC505F0E8042314F0040FDC
:1002F000F1E804670CFA05F462EA040266EA04060F
:100300000AD063EA0403624667EA0407664603E02C
:10031000F0E80423F1E8046782FA4CF582EA060467
:10032000A4FA8CF46CBB83FA4CF583EA0705A5FAB2
:100330008CF595B950E9022351E9026782FA4CF530
:1003400082EA0604A4FA8CF483FA4CF583EA0705E2
:10035000A5FA8CF52543DBD09CB92DBAB5FA85F406
:1003600024F0070427FA04F1DDE9026723FA04F315
:1003700003F0FF0001F0FF01FDE80445A0EB0100E0
:10038000704724BAB4FA84F424F0070426FA04F17E
:10039000DDE9026722FA04F202F0FF0001F0FF013A
:1003A000FDE80445A0EB0100704714F0030F3CD1B9
:1003B00010F0030428D150F8082B51F8083B82FABA
:1003C0004CF582EA0305A5FA8CF55DB950F8042CCA
:1003D00051F8043C82FA4CF582EA0305A5FA8CF543
:1003E000002DE8D02DBAB5FA85F424F0070423FADD
:1003F00004F122FA04F202F0FF0001F0FF01FDE82F
:100400000445A0EB010070474FEAC40420F003004C
:1004100050F8082B21F0030151F8083B0CFA04F4C2
:1004200062EA040263EA0403C9E710F003041AD085
:10043000A1EB040120F00300E40750F8042B06D0E0
:100440000FD28B785FFAA2F4E41A06D12BB1CB78E5
:100450005FFAB2F4E41A00D11BB920465DF8104BE4
:10046000704701F1040150F8042BCC0721F003017F
:1004700051F8043B48D824D222F07F4482FA4CF54C
:1004800094EA1325A5FA8CF50AD165B951F8043B15
:1004900084EA0204B4EB036F0ED150F8042BEBE7AF
:1004A0004FEA132355E035F07F454DD10878FDE83C
:1004B0000445C0F1000070474FEA126203F0FF03E9
:1004C00047E002EA1C4482FA4CF594EA1345A5FA87
:1004D0008CF50AD165B951F8043B84EA0204B4EB07
:1004E000034F0CD150F8042BEBE74FEA134330E0F5
:1004F00015EA1C4528D10B884FEA124229E04FEA41
:10050000124203EA1C4324E002F0FF0482FA4CF595
:1005100094EA1365A5FA8CF50AD165B951F8043B44
:1005200084EA0204B4EB032F09D150F8042BEBE763
:100530004FEA13630DE015F0FF0F05D10B684FEA8A
:10054000122223F07F4304E04FF00000FDE8044551
:10055000704712BA1BBA82FA4CF482EA0304A4FA76
:100560008CF5B5FA85F402FA04F203FA04F34FEAC3
:100570001260FDE80445A0EB13607047844641EA31
:10058000000313F003036DD1403A41D351F8043B0B
:1005900040F8043B51F8043B40F8043B51F8043B5D
:1005A00040F8043B51F8043B40F8043B51F8043B4D
:1005B00040F8043B51F8043B40F8043B51F8043B3D
:1005C00040F8043B51F8043B40F8043B51F8043B2D
:1005D00040F8043B51F8043B40F8043B51F8043B1D
:1005E00040F8043B51F8043B40F8043B51F8043B0D
:1005F00040F8043B51F8043B40F8043B51F8043BFD
:1006000040F8043B51F8043B40F8043B403ABDD26B
:10061000303211D351F8043B40F8043B51F8043B0D
:1006200040F8043B51F8043B40F8043B51F8043BCC
:1006300040F8043B103AEDD20C3205D351F8043B9C
:1006400040F8043B043AF9D2043208D0D2071CBF68
:1006500011F8013B00F8013B01D30B880380604691
:10066000704700BF082A13D38B078DD010F0030307
:100670008AD0C3F10403D21ADB071CBF11F8013B77
:1006800000F8013B80D331F8023B20F8023B7BE7C6
:10069000043AD9D3013A11F8013B00F8013BF9D2F1
:1006A0000B7803704B7843708B788370604670478B
:1006B00081F0004102E000BF83F0004330B54FEA13
:1006C00041044FEA430594EA050F08BF90EA020F80
:1006D0001FBF54EA000C55EA020C7FEA645C7FEA13
:1006E000655C00F0E2804FEA5454D4EB5555B8BF36
:1006F0006D420CDD2C4480EA020281EA030382EAA7
:10070000000083EA010180EA020281EA0303362D38
:1007100088BF30BD11F0004F4FEA01314FF4801C0B
:100720004CEA113102D0404261EB410113F0004F1D
:100730004FEA03334CEA133302D0524263EB4303D4
:1007400094EA050F00F0A780A4F10104D5F1200E72
:100750000DDB02FA0EFC22FA05F2801841F10001CD
:1007600003FA0EF2801843FA05F359410EE0A5F1A1
:1007700020050EF1200E012A03FA0EFC28BF4CF0D2
:10078000020C43FA05F3C01851EBE37101F0004588
:1007900007D54FF0000EDCF1000C7EEB00006EEB95
:1007A0000101B1F5801F1BD3B1F5001F0CD349081F
:1007B0005FEA30004FEA3C0C04F101044FEA445276
:1007C00012F5800F80F09A80BCF1004F08BF5FEAFD
:1007D000500C50F1000041EB045141EA050130BDDD
:1007E0005FEA4C0C404141EB0101013C28BFB1F5EF
:1007F000801FE9D291F0000F04BF01460020B1FA3A
:1008000081F308BF2033A3F10B03B3F120020CDA0C
:100810000C3208DD02F1140CC2F10C0201FA0CF0EA
:1008200021FA02F10CE002F11402D8BFC2F1200C4F
:1008300001FA02F120FA0CFCDCBF41EA0C01904005
:10084000E41AA2BF01EB0451294330BD6FEA04044E
:100850001F3C1CDA0C340EDC04F11404C4F1200239
:1008600020FA04F001FA02F340EA030021FA04F34B
:1008700045EA030130BDC4F10C04C4F1200220FAA2
:1008800002F001FA04F340EA0300294630BD21FAE0
:1008900004F0294630BD94F0000F83F4801306BFA6
:1008A00081F480110134013D4EE77FEA645C18BF9A
:1008B0007FEA655C29D094EA050F08BF90EA020F31
:1008C00005D054EA000C04BF1946104630BD91EA29
:1008D000030F1EBF0021002030BD5FEA545C05D12C
:1008E0004000494128BF41F0004130BD14F580046B
:1008F0003CBF01F5801130BD01F0004545F0FE41DF
:1009000041F470014FF0000030BD7FEA645C1ABF13
:10091000194610467FEA655C1CBF0B46024650EA4A
:10092000013406BF52EA033591EA030F41F4002176
:1009300030BD00BF90F0000F04BF0021704730B5FC
:100940004FF4806404F132044FF000054FF00001D1
:1009500050E700BF90F0000F04BF0021704730B592
:100960004FF4806404F1320410F0004548BF404267
:100970004FF000013EE700BF42004FEAE2014FEABC
:1009800031014FEA02701FBF12F07F4393F07F4F97
:1009900081F06051704732F07F4208BF704793F09A
:1009A0007F4F04BF41F40021704730B54FF46074AD
:1009B00001F0004521F000411CE700BF50EA0102B0
:1009C00008BF704730B54FF000050AE050EA010259
:1009D00008BF704730B511F0004502D5404261EBC9
:1009E00041014FF4806404F132045FEA915C3FF40A
:1009F000D8AE4FF003025FEADC0C18BF03325FEAA7
:100A0000DC0C18BF033202EBDC02C2F1200300FA57
:100A100003FC20FA02F001FA03FE40EA0E0021FA7C
:100A200002F11444BDE600BF70B54FF0FF0C4CF46A
:100A3000E06C1CEA11541DBF1CEA135594EA0C0F1C
:100A400095EA0C0F00F0DEF82C4481EA030621EA57
:100A50004C5123EA4C5350EA013518BF52EA033592
:100A600041F4801143F4801338D0A0FB02CE4FF044
:100A70000005E1FB02E506F00042E0FB03E54FF074
:100A80000006E1FB03569CF0000F18BF4EF0010E6C
:100A9000A4F1FF04B6F5007F64F5407404D25FEA68
:100AA0004E0E6D4146EB060642EAC62141EA55511B
:100AB0004FEAC52040EA5E504FEACE2EB4F1FD0C5D
:100AC00088BFBCF5E06F1ED8BEF1004F08BF5FEADB
:100AD000500E50F1000041EB045170BD06F000468D
:100AE00046EA010140EA020081EA0301B4EB5C043A
:100AF000C2BFD4EB0C0541EA045170BD41F4801132
:100B00004FF0000E013C00F3AB8014F1360FDEBF56
:100B1000002001F0004170BDC4F10004203C35DA32
:100B20000C341BDC04F11404C4F1200500FA05F3B5
:100B300020FA04F001FA05F240EA020001F0004256
:100B400021F0004110EBD37021FA04F642EB0601CC
:100B50005EEA430E08BF20EAD37070BDC4F10C04F6
:100B6000C4F1200500FA04F320FA05F001FA04F2BA
:100B700040EA020001F0004110EBD37041F10001A6
:100B80005EEA430E08BF20EAD37070BDC4F12005B1
:100B900000FA05F24EEA020E20FA04F301FA05F219
:100BA00043EA020321FA04F001F0004121FA04F2C1
:100BB00020EA020000EBD3705EEA430E08BF20EA91
:100BC000D37070BD94F0000F0FD101F000464000CB
:100BD00041EB010111F4801F08BF013CF7D041EA4D
:100BE000060195F0000F18BF704703F00046520051
:100BF00043EB030313F4801F08BF013DF7D043EA22
:100C00000603704794EA0C0F0CEA135518BF95EAD7
:100C10000C0F0CD050EA410618BF52EA4306D1D15E
:100C200081EA030101F000414FF0000070BD50EA7D
:100C3000410606BF1046194652EA430619D094EA07
:100C40000C0F02D150EA013613D195EA0C0F05D1F1
:100C500052EA03361CBF104619460AD181EA030145
:100C600001F0004141F0FE4141F470014FF00000FD
:100C700070BD41F0FE4141F4780170BD70B54FF098
:100C8000FF0C4CF4E06C1CEA11541DBF1CEA135518
:100C900094EA0C0F95EA0C0F00F0A7F8A4EB0504FA
:100CA00081EA030E52EA03354FEA013100F08880F1
:100CB0004FEA03334FF0805545EA131343EA1263BA
:100CC0004FEA022245EA111545EA10654FEA00266F
:100CD0000EF000419D4208BF964244F1FD0404F528
:100CE000407402D25B084FEA3202B61A65EB030584
:100CF0005B084FEA32024FF480104FF4002CB6EB41
:100D0000020E75EB030E22BFB61A754640EA0C00C0
:100D10005B084FEA3202B6EB020E75EB030E22BF00
:100D2000B61A754640EA5C005B084FEA3202B6EB41
:100D3000020E75EB030E22BFB61A754640EA9C0000
:100D40005B084FEA3202B6EB020E75EB030E22BFD0
:100D5000B61A754640EADC0055EA060E18D04FEA8E
:100D6000051545EA16754FEA06164FEAC30343EA2E
:100D700052734FEAC2025FEA1C1CC0D111F4801FFB
:100D80000BD141EA00014FF000004FF0004CB6E7F4
:100D900011F4801F04BF01430020B4F1FD0C88BF93
:100DA000BCF5E06F3FF6AFAEB5EB030C04BFB6EB9E
:100DB000020C5FEA500C50F1000041EB045170BD91
:100DC0000EF0004E4EEA113114EB5C04C2BFD4EBBE
:100DD0000C0541EA045170BD41F480114FF0000E42
:100DE000013C90E645EA060E8DE60CEA135594EABE
:100DF0000C0F08BF95EA0C0F3FF43BAF94EA0C0FC1
:100E00000AD150EA01347FF434AF95EA0C0F7FF435
:100E100025AF104619462CE795EA0C0F06D152EA89
:100E200003353FF4FDAE1046194622E750EA41066D
:100E300018BF52EA43067FF4C5AE50EA41047FF47E
:100E40000DAF52EA43057FF4EBAE12E74FEA4102E1
:100E5000B2F1E04324BFB3F5001CDCF1FE5C0DD918
:100E600001F0004C4FEAC0024CEA5070B2F1004F62
:100E700040EB830008BF20F00100704711F0804F65
:100E800021D113F13872BCBF01F00040704741F42A
:100E900080114FEA5252C2F11802C2F1200C10FA2E
:100EA0000CF320FA02F018BF40F001004FEAC12312
:100EB0004FEAD32303FA0CFC40EA0C0023FA02F3B6
:100EC0004FEA4303CCE77FEA625307D150EA01338C
:100ED0001EBF4FF0FE4040F44000704701F000405C
:100EE00040F0FE4040F40000704700BF7BB972B98B
:100EF0000029BEBF00204FF0004106E008BF0028D7
:100F00001CBF6FF000414FF0FF3000F057B8ADF15B
:100F1000080C6DE904CE002909DB002B1ADB00F078
:100F20004FF8DDF804E0DDE9022304B070474042E9
:100F300061EB4101002B1BDB00F042F8DDF804E01F
:100F4000DDE9022304B0404261EB4101524263EB10
:100F500043037047524263EB430300F031F8DDF87E
:100F600004E0DDE9022304B0404261EB4101704737
:100F7000524263EB430300F023F8DDF804E0DDE9BF
:100F8000022304B0524263EB4303704753B94AB99A
:100F9000002908BF00281CBF4FF0FF314FF0FF3081
:100FA00000F00CB8ADF1080C6DE904CE00F008F8C3
:100FB000DDF804E0DDE9022304B07047704700BFAC
:100FC0002DE9F04786468C460846089E154674462D
:100FD0001946002B40F0C2808542B2FA82F245D910
:100FE0004AB1C2F1200300FA02FC2EFA03F3954045
:100FF00043EA0C0C94404FEA154EA8B2BCFBFEF835
:10100000230C0EFB18CC08FB00F943EA0C4399456E
:1010100028D9EB1808F1FF3704D2994502D9A8F175
:1010200002072B44A3EB0903A4B2B3FBFEFC0EFBA7
:101030001C330CFB00F044EA0344A04214D92C19E1
:101040000CF1FF3304D2A04202D9ACF102032C44CC
:10105000241A43EA07401EB1D44000233460736071
:10106000BDE8F0874746DDE76346F1E792BB431BE7
:1010700001214FEA154EAFB2B3FBFEFC200C0EFB74
:101080001C330CFB07F840EA0343984562D9EB1880
:101090000CF1FF3004D2984502D9ACF102002B4488
:1010A000A3EB0803A4B2B3FBFEFC0EFB1C330CFB4A
:1010B00007F744EA0344A7424ED92C190CF1FF3339
:1010C00004D2A74202D9ACF102032C44E41B43EA48
:1010D0000040C0E7C2F1200320FA03F195409040A0
:1010E0002EFA03F303434FEA154EAFB2B1FBFEFCF9
:1010F0000EFB1C10190C0CFB07F841EA0041884557
:1011000004FA02F422D969180CF1FF3004D28845A0
:1011100002D9ACF102002944A1EB08019BB2B1FB5A
:10112000FEFC0EFB1C110CFB07F743EA01439F4238
:101130000ED9EB180CF1FF3104D29F4202D9ACF169
:1011400002012B44DB1B41EA004192E76046E3E7E2
:101150006146F7E76046A3E76346B7E7834206D9EF
:1011600016B9002108467BE7C6E900E0F9E7B3FAC3
:1011700083F78FB9834201D3724508D8BEEB0204CE
:1011800060EB030301209C461EB9002168E7384646
:10119000FAE7C6E9004CF8E7C7F1200CBB4022FA99
:1011A0000CF41C432EFA0CF120FA0CF3B840014366
:1011B0004FEA14490EFA07F5B3FBF9F81FFA84FE5B
:1011C00009FB18300B0C08FB0EFA43EA00439A4562
:1011D00002FA07F240D9E31808F1FF3004D29A4529
:1011E00002D9A8F102002344A3EB0A0389B2B3FB9E
:1011F000F9F809FB183308FB0EFE41EA03418E455E
:101200002CD9611808F1FF3304D28E4502D9A8F118
:101210000203214443EA0040A0FB0298A1EB0E0127
:101220004145CE46434602D306D14D4504D2B9EBE3
:10123000020E68EB04030138002EA6D0B5EB0E02B7
:1012400061EB030101FA0CFC22FA07F34CEA0303F9
:10125000F940C6E9003198E74046C5E74346D9E77B
:10126000D0B504464068FFF775FB09A3D3E9002316
:10127000FFF704FD064620680F46FFF76BFB0246AA
:101280000B4630463946FFF719FA41EC100BD0BD3A
:101290000000000080842E412DE9F043384C0746C1
:1012A000206887B00E46154620B96FF0120007B0CF
:1012B000BDE8F08309F04FFC0028F6D02068836871
:1012C0004321DB689847002852DB20686A460821E2
:1012D00007F0DCFD206802AA092107F0D7FD04AA67
:1012E00020680A2107F0D2FD0198FFF733FB22A303
:1012F000D3E90023FFF7C2FC804600988946FFF738
:1013000029FB02460B4640464946FFF7D7F9FFF74F
:101310009DFD38600398FFF71DFB17A3D3E9002359
:10132000FFF7ACFC804602988946FFF713FB0246A4
:101330000B4640464946FFF7C1F9FFF787FD30608D
:101340000598FFF707FB0CA3D3E90023FFF796FCF2
:10135000064604980F46FFF7FDFA02460B46304654
:101360003946FFF7ABF9FFF771FD286000209EE7D3
:101370006FF004009BE700BF0000000080842E4156
:1013800094160020000000002DE9F04F9FB0824627
:10139000039117461C460025387810B9284600F0FE
:1013A000A6BD252809D00399D0470028C0F29F8503
:1013B0007B1C01350593059FEEE71822002110A83C
:1013C00007F0F8FB7B78252B00F0BC800023791C0C
:1013D00098469E469C4618460E4611F8012B2B2A2D
:1013E00000F0E38000F2DA80202A00F0E180232A76
:1013F00000F0E1802BB19DF8483043F040038DF8B8
:101400004830B8F1000F05D09DF8483043F0200374
:101410008DF84830BEF1000F05D09DF8483043F0FC
:1014200010038DF84830BCF1000F05D09DF848300E
:1014300043F008038DF8483028B19DF8483043F058
:1014400004038DF848309DF8483003F044014429E6
:1014500003D16FF386138DF848309DF848300E960F
:1014600043F080032A2A8DF8483040F0A9809DF887
:10147000493043F001038DF84930731C1A782E2A45
:101480009DF849200CBF0121002161F341028DF834
:1014900049200CD15A1C0E925A782A2A40F0A0807A
:1014A0009DF8492042F004028DF8492002331A7851
:1014B0006C2A00F0C18000F2A380682A00F0A980A5
:1014C0006A2A00F0C2804C2A00F0C78013F8012B72
:1014D0000593782A8DF84B2000F209816D2A00F2DD
:1014E000C980692A00F20381572A00F2E280412A6A
:1014F00004D0A2F14503022B00F2F9809DF84A3096
:1015000002F0DF020421A2F1410961F30203D9F1E3
:1015100000029DF849108DF84A3042EB090262F34F
:10152000C7110A068DF84910CBB200F11F8103F0F4
:101530007802182A40F009816FF3C6038DF849300C
:101540000023F8E08DF84B30BB1C05939DF8493023
:101550009DF84A20DE0702F0070040F1098154F8A7
:10156000041B0491002908DA9DF8481041F0040199
:101570008DF84810049949420491590740F10081BF
:1015800054F8046B002E80F2FF809DF849306FF311
:1015900041038DF849304FF0FF36F5E02D2A0DD08C
:1015A000302A7FF427AF012316E74FF0010C13E731
:1015B0004FF0010E10E74FF001080DE701200BE797
:1015C0000EA801F067FD0E9BB3423FF457AF9DF8A4
:1015D00048201390C00F60F341028DF848204DE77A
:1015E0000EA801F057FD9DF848301490C3F3400257
:1015F00042EAD07262F341038DF848300E9B56E701
:10160000742A26D07A2A7FF461AF9DF849200621FA
:101610000CE05A78682A9DF8492006D1012161F32F
:10162000C6028DF84920023350E7022161F3C60259
:101630008DF84920013349E75A786C2A9DF84920F2
:1016400001D10421EBE70321F0E79DF849200521B2
:10165000ECE79DF849200721E8E7BDF8482022F48F
:10166000F04222F0020242F4804242F00202ADF85F
:101670004820DFE76E3AD3B201229A4040F282431B
:101680001A429DF8493039D112F0240F61D1D107A7
:101690002DD59DF84A2003F07803A3F140080321DB
:1016A00061F30202D8F100038DF84A2043EB0803EE
:1016B00041E0A2F15801C9B2012000FA01F111F490
:1016C000624F7FF41BAF40F6010319429DF8493089
:1016D0001AD111F4043F0AD09DF84A2060F30202A7
:1016E00003F07803402B8DF84A207FF429AF9DF852
:1016F000483043F001038DF8483021E79DF84A2037
:10170000022161F30202EBE79DF84A10022003F088
:10171000780360F30201402B8DF84A1002BF9DF858
:10172000481041F001018DF84810632A7FF408AF9A
:10173000003B18BF01239DF84820C2F340010B4332
:1017400063F341028DF8482000E713F0380FCED143
:10175000F6E69DF84A20032113F0780F61F30202A8
:101760008DF84A2014BF01230023E4E70123E2E7B8
:101770009DF948100029B4BF13994FF0FF31FBE6E3
:101780009E077FF508AF149E00230428CDE913338C
:101790009DF8493007D1990705D49DF949100029D2
:1017A000ACBF06260D2602F00702012AC3F3C303CD
:1017B00032D1DA1E042A04D8DFE802F020454520A1
:1017C00020002268012B4FEAE271CDE910211BD1E4
:1017D0009DF94020D117CDE9102104349DF848200F
:1017E000069292074FD0059B03993A46504607F060
:1017F00032FC0028C0F27B830544DCE554F8042B5E
:10180000D117CDE91021E9E7022BE6D111B242F35D
:10181000C032CDE91012E0E7022A24D1DA1E042AF0
:1018200004D8DFE802F0181010181800012B54F843
:10183000042B4FF0000114D0022BCDE91021CDD1A3
:1018400092B21092CAE7073424F00704F4E80201C8
:10185000CDE91001C2E754F8042B10920022119236
:10186000BCE7D2B2CDE7042A08D1073424F007043C
:10187000D4E900010834CDE91001AFE7032AADD166
:1018800054F8042BDDE79DF84B80B8F1780F3FF654
:1018900092ADB8F1570F5CD8B8F1250F00F0A480D5
:1018A000B8F1240F7FF687ADB8F1410F04D0A8F14D
:1018B0004503022B3FF67FADDDE91023002BC0F27C
:1018C0004D810699080700F14C81C1F300194FEAD8
:1018D0004919C3F30A51C3F31303002940F04481AB
:1018E00052EA030014BF4FF0010C4FF0000CD80275
:1018F00040EA5250D702CDE90C70B8F1460F47EAE2
:10190000010740EAE17008BF4FF06608384300F075
:10191000B881BCF1000F10D01B0343EA1253170328
:101920003A4618464FF0000C002880F25681BCF170
:10193000000F40F05981CDE90C730D9B43F000433B
:10194000A1F2FE3B0D930021DDE90C230F4605209B
:1019500060E1A8F15802202A3FF62DAD01A151F80F
:1019600022F000BF2F1B0008B7130008B7130008B0
:10197000B7130008B7130008B7130008B71300081F
:10198000B7130008B7130008B9180008B713000808
:10199000DB1A0008EF1A0008B9180008B918000887
:1019A000B9180008B7130008EF1A0008B7130008A9
:1019B000B7130008B7130008B7130008351B000859
:1019C0002F1B00087F1A0008B7130008B713000880
:1019D000F9190008B71300082F1B0008B7130008F7
:1019E000B71300082F1B000803994046D047002872
:1019F000C0F27D820135DEE4002E109F3BDB3146D4
:101A0000384607F06BF9002F3FF4D5AC3E18F31BB6
:101A10004FF000099DF84A2012F01001069100F0E5
:101A20005B82023312F04002DDF84C80089218BF4E
:101A3000149ACDF81C80434418BF9B18049A002ABE
:101A400040F36582D31A9DF8482004935007C2F3EF
:101A5000800B00F15C82510640F14C82B9F1000F1D
:101A600007D003994846D0470028C0F2408201358C
:101A7000D94630223FE23846FEF7A2FBC6E710986F
:101A8000002800F024820DF17503009312AA17AB11
:101A9000002101F015FBBDF84A3003F0EF0343F4D9
:101AA000F04343F010030746ADF84A304FF0000909
:101AB000002E0CDB9DF848200DF17503DB1B6FF346
:101AC00086129E428DF8482001D9F31A1393002FF5
:101AD0003FF471AC0DF175066DE0109B8DF85C3034
:101AE0004FF000090DF15D0617AF012392E7069B49
:101AF0001F0758BFC3F30019DDE9102354BF4FEA95
:101B000049194FF02B09002B06DA524263EB4303CD
:101B1000CDE910234FF02D090DF175030093DDE998
:101B2000100117AB12AA01F0CBFA0746C0E74FF03D
:101B30000009F1E7109A072B3FF63DACDFE803F010
:101B40000C04060C08080C0C157034E4158032E403
:101B5000EB17C2E900532EE415602CE44FF02D0979
:101B6000B7E64FF02B09B4E640F2FF70814231D165
:101B700008F10108A2495FFA88F8134311F8081028
:101B800001F003011ED101290BBF492369234E2116
:101B90006E210CBF462266228DF85C309DF84830DD
:101BA0008DF85D106FF386138DF85E208DF8483048
:101BB0000DF15F0617AFF31BB9F1000F3FF42AAF29
:101BC000013327E7012915BF6E234E2361214121EF
:101BD0001A46E1E74FF0000C89E6921801F1FF3157
:101BE00040414FF0010C9FE6CDE90C20A5E65208DC
:101BF00042EAC3725B08B3F1333F59460BF1010B64
:101C0000F5D200FB03FCA2FB002301F1020B6344AD
:101C1000013F01211BF1020FE9DB09B1CDE90C23E2
:101C2000BBF1000FDDE90C322EDCCBF10401A1F198
:101C300020000BF11C0B02FA0BFB22FA00F0CA4049
:101C4000CB40079208F0DF0243EA0B03472A43EA3E
:101C500000037DD1F91C01DBBE422BDAA8F102089A
:101C6000002E5FFA88F87CDD9DF84820920606F188
:101C7000FF3676D4B6F1000B18BF4FF0010B721C83
:101C800027E04FF0000B5EE6023342F100020CA8A1
:101C9000CDE90C3207F0B0F9DDE90C320BF1FF3B76
:101CA0000137DB185241002A0BF1FF3BF9DACDE98D
:101CB0000C32B5E79DF848209006A6EB07064DD4F8
:101CC000B6F1000B18BF4FF0010BF2194FF0660888
:101CD0004AD4102AA8BF10229FED477B8DED0E7BC2
:101CE00010200B90DDE90E01002A3FD1079A1B1846
:101CF00042EB0101B1F1805F47D2CDE90C31069B87
:101D0000B8F1660F03F0200240F0C180002F47DCDD
:101D100030238DF85C30002A74D1002E40F3BA8154
:101D20002E238DF85D3087B17B42B342A8BF334686
:101D30009DF84A201393002BA6EB0306D4BF002383
:101D4000012363F345128DF84A200DF15E0340E054
:101D5000B8F1660F4FF0000BB7D090E74FF0000BD3
:101D6000B3E74FF0000B8AE70022B5E7400840EAEE
:101D7000C1704908CDE90E010EA8CDE9082307F08E
:101D80003BF9089A099B013AACE75B0843EAC17347
:101D90000CA84908CDE90C31013707F02DF9AEE761
:101DA00017AB0B9900290BDD0BA90CA8CDE9063266
:101DB00007F03AF9069B079A03F8010B013FF0D1AF
:101DC0001397AAB9002E40F363812E2103F8011B5B
:101DD0000027002E1FDD0B9A002A1CDD0BA90CA882
:101DE000069307F021F9069B013E03F8010BF0E78B
:101DF0002E2203F8012BEBE7000000000000000892
:101E000034BD00082E238DF85D30002F9DD0002EAC
:101E10008ADC0DF15E03BBF1000F4CD114961E4617
:101E200008F0DF03452B21D1002FBABF7F422D23BD
:101E30002B23632FC8BF64227370C2BFB7FBF2F3BA
:101E400003F1300102FB13774FF00A0286F800809D
:101E5000CABFB17002360336B7FBF2F303F13001AB
:101E600002FB13733033317073700236139B002BF7
:101E70002BDC149B002BD4BF002301239DF84A20A8
:101E800063F3861200238DF84A20337092E60BA983
:101E90000CA8069207F0C8F8069A8DF85C00302866
:101EA00018BF07F1FF3712B9002E40F3F3802E233D
:101EB0008DF85D3049E71E46013B16F8012C302AAB
:101EC000F9D02E2A08BF1E46AAE70123D6E7734E93
:101ED0008146771F05239DE5110748BF0133A1E522
:101EE000104609920399D0470028099A05DA1FB0D5
:101EF000BDE8F08F2022DDF810B0594600290BF123
:101F0000FF3BEDDC049BCDF810B02B445D1AB9F11A
:101F1000000F05D003994846D0470028E7DB01357C
:101F2000089B002B79D09DF94930002B29DBDFF885
:101F300070913B46187819F8002052079B4603F130
:101F400001033FD49DF84A30EF1B98065F4407D445
:101F50004246002A08F1FF383BDC079B3B449F1AAE
:101F60009BF800002E280AD10399D0470028BEDB39
:101F7000B8F1000F07F1010731DC0BF1010B5D46F1
:101F800038E0B94699F800007028C84609F10109FF
:101F900013D1EF1B149D47443D44EB1B002B34DC55
:101FA000039933464246504607F055F800289EDB19
:101FB0003844049E0546064465E00399D04700284E
:101FC000E0DA94E706930399D0470028069BB1DA3C
:101FD0008DE703993020D0470028B9DA87E70399C5
:101FE0003020D04708F1FF38C0E70399D0470028D8
:101FF000FFF67DAF287819F800305907A84605F19B
:102000000105F2D4A7EB0B07C4E703993020D047B2
:102010000028FFF66CAF0137BFE79DF84A30DA06BB
:1020200001D41B0706D503993020D0470028FFF6BE
:102030005EAF0135069B3BB103999DF84B00D0473D
:102040000028FFF654AF0135A84406E0039930207C
:10205000D0470028FFF64BAF0135A8EB0503002B56
:10206000F4DC039933463A46504606F0F4FF002864
:10207000FFF63DAF28449CE703992020D047002875
:10208000FFF635AF0135731B002BF5DCFFF793B975
:102090001746C0E60DF15D03BDE600BF53C400085E
:1020A00035BD00082DE9F04191F82C308CB0002BA3
:1020B00037D00A6809928A680B6B0A9240F20112C3
:1020C000ADF82C2008930CABD1E9048591F8306071
:1020D00091F831704C8E13E90300CDE906588DE874
:1020E000030006AB0FCB00F0BBF900F039FBC0B129
:1020F0004FF47A72B8FBF2F0B4FBF2F302FB1081FA
:1021000002FB1344CDE90301B5FBF2F1A4B202FBDB
:102110001155CDE90115044800943A46314606F0C0
:1021200054FF0CB0BDE8F08154BE00087FB50BAB86
:1021300005930393054B02930023CDE9003303225B
:10214000184601F033F907B05DF804FB8CBE0008B7
:102150007FB5194B02930023CDE9003317490322C1
:102160001846FFF7E3FF002142F2107008F0D4FE9A
:1021700000F01EF900F096F900F014FB014610B1D2
:102180000F4806F022FF00F05DFD014610B10D483A
:1021900006F01BFF05A800F06BFD0598FEF7ECFBB1
:1021A00002460B46084806F010FF4FF0FF314FF093
:1021B000FF3008F0B1FEF8E78CBE0008D4B8000884
:1021C000A5BE0008C1BE0008DEBE000801460248E8
:1021D00083685B68184700BF00B4000830B5054647
:1021E00085B00C461E4808F0B6FC28B91D4805B05D
:1021F000BDE8304006F0E9BE1B4B00930823ADF864
:102200000430F0238DF8063000238DF807508DF848
:1022100008308DF80940ADF80A30039318460222C1
:102220001DF802100132014453FA81F30E2AC8B29C
:10223000DBB2F5D18DF80E008DF80F306C4600251D
:1022400014F8010B0135FFF7C1FF102DF8D14FF441
:10225000FA70002105B0BDE8304008F05DBE00BF57
:1022600000B40008EABE0008B562060170B5044675
:10227000164808F070FC20B91548BDE8704006F01B
:10228000A4BE052C05D00A2C1BD0012C1BD0114854
:10229000F3E7114D1148214606F097FE6E1E0D35ED
:1022A00016F8010FFFF792FFAE42F9D100214FF46B
:1022B0007A7008F031FE21460948BDE8704006F00A
:1022C00084BE084DE6E7084DE4E700BF00B400080F
:1022D000EABE000805BF000863C0000833BF00085D
:1022E00058BF000855C0000871C0000838B50E4836
:1022F00008F031FC20B90D48BDE8384006F065BE55
:102300000B480C4D06F061FE002415F8010B01345A
:10231000FFF75CFF152CF8D141F28830002108F05E
:10232000FBFD0548E8E700BF00B40008EABE00086E
:1023300076BF000840C000089CBF000808B51A48D6
:1023400006F043FE00210846FFF748FF0021012068
:10235000FFF744FF00210220FFF740FF0021032088
:10236000FFF73CFF00210420FFF738FF0021052084
:10237000FFF734FF00210620FFF730FF0021072080
:10238000FFF72CFF00210820FFF728FF002109207C
:10239000FFF724FF0A200021FFF720FFBDE80840D7
:1023A000024806F012BE00BFB5BF0008D5BF000846
:1023B00008B50B4806F009FEFFF7C0FF0121002019
:1023C000FFF70CFF01210420FFF708FF0520012182
:1023D000FFF704FFBDE80840024806F0F6BD00BF65
:1023E000F1BF000815C000087FB50BAB0593039340
:1023F000054B02930023CDE900330222184600F07A
:10240000D5FF07B05DF804FB7FC000081FB5104C76
:10241000237DABB1237F9BB194F8283083B10D4865
:1024200000220023214608F0EBFB58B10A4B02932F
:102430000023CDE90033094902221846FFF7D4FFF3
:1024400004B010BD2075207784F82800F8E700BF9D
:1024500038160020840300207FC0000894B80008CC
:1024600084B070B50D4E04AC84E80F0004AD304666
:102470004FF0FF324FF0FF3306F0EDFC0FCD084C6C
:102480000FC495E8030084E80300304606F0E5FC3D
:10249000BDE8704004B0FFF7B9BF00BF480300209B
:1024A00038160020034B00221A859A839A8283F8FB
:1024B0002C2070473816002038B50446074D4FF0E1
:1024C000FF324FF0FF33284604F02AFF044B1C7004
:1024D0002846BDE8384004F09BBF00BF70030020D1
:1024E000A41900202DE9F042B0B07F4808F033FB7A
:1024F00028B97E4830B0BDE8F04206F066BD002144
:10250000794DDFF8589241F2883008F005FD78489F
:1025100006F05BFDAB6805930026059B1B68002B4E
:1025200000F0DA800DF11B01284698470446002888
:1025300040F0D2809DF81B100A2902D00D2940F0EE
:10254000B2806C4806F041FD06F1C0036B440022E6
:1025500003F8802C0EB310A8FDF732FE10AB1A184A
:10256000D8B112F8013C0A3BDBB2162B04D849FA69
:1025700003F313F0010314D05F490C2210A806F0F6
:102580006BFBB8B913A806F0E1FA20F00403012BA5
:1025900001D00A2809D1FFF769FE554806F015FD5C
:1025A0009FE002F8013D0138DAE70146534806F0A2
:1025B0000CFDF2E7524910A8FDF776FE10B9FFF7BF
:1025C00095FEEAE74F4910A8FDF76EFE28B900F026
:1025D0009FFA4D4806F0F9FCDFE74C4910A8FDF7DB
:1025E00063FE10B900F0C4FAD7E7494910A8FDF717
:1025F0005BFE48BB07A800F0DBF918BB0D98FEF79F
:10260000BBF906460E980F46FEF7B6F932463B4632
:10261000CDE900013F4806F0D8FC0798FEF7ACF979
:10262000064609980F46FEF7A7F9CDE9020108987A
:10263000FEF7A2F93246CDE900013B46364806F0E6
:10264000C4FCAAE73548C5E7354910A8FDF72CFEBC
:1026500020B90120FFF730FF3248BBE7324910A80C
:10266000FDF722FE18B9FFF727FF3048B2E73049DF
:1026700010A8FDF719FE80B92E4806F0A6FC2E48DA
:1026800006F0A3FC2D4806F0A0FC2D4806F09DFCAA
:102690002C4806F09AFC2C489CE72C4810A906F020
:1026A00094FC2B4896E7082901D07F2903D1C6B1B5
:1026B0002848741E72E77E2E12DCA1F120035E2BE7
:1026C0000ED806F1C003741C0DEB0306224806F871
:1026D000801C06F07AFC04E06420002108F01CFC59
:1026E0003446264619E700BFE4B300089BC0000843
:1026F000F7C400080CC3000850C30008BDC00008A0
:10270000F2C00008FBC000080BC1000840C100086F
:102710004FC1000855C1000872C1000895C10008EA
:10272000B1C10008BBC10008D2C10008DDC100086A
:10273000F5C10008FAC1000810C2000844C2000830
:1027400078C20008ADC20008E3C200080EC300084A
:1027500025C3000849C300084DC30008F6FFBFFFAA
:1027600038B5074C4FF0FF324FF0FF33204604F0EE
:10277000D7FD044B1D78204604F04AFE284638BD9C
:1027800070030020A419002002460B46014804F003
:10279000C7BD00BF5C030020014804F039BE00BF84
:1027A0005C0300201FB5104B1048186008F0D3F9E7
:1027B00030B90F4806F009FC6FF0120004B010BDEC
:1027C0000C4B0D494FF07E52DA601A615A610024B9
:1027D0000A4B02932046CDE900442346032206F02B
:1027E00042FB2046EAE700BF9016002070B40008C4
:1027F0006BC3000878160020ECB8000884C30008FA
:1028000008B5044B186808B108F0A5F900F00100FC
:1028100008BD00BF901600202DE9F04387B00746A1
:102820000E461546FFF7ECFF00286DD0394C2068A6
:1028300006F015FB00286ADB20686A46002106F0D6
:1028400022FB206802AA012106F01DFB04AA2068D1
:10285000314C022106F017FB6846FEF701FD2068A7
:1028600059EC108BFEF788F802460B464046494665
:10287000FDF722FF8046E0688946FEF77DF80246B4
:102880000B4640464946FEF7CFF8FEF7DFFA3860C0
:1028900002A8FEF7E5FC606859EC108BFEF76CF8B7
:1028A00002460B4640464946FDF706FF8046206932
:1028B0008946FEF761F802460B4640464946FEF758
:1028C000B3F8FEF7C3FA306004A8FEF7C9FCA068AD
:1028D00057EC106BFEF750F802460B46304639466F
:1028E000FDF7EAFE064660690F46FEF745F8024628
:1028F0000B4630463946FEF797F8FEF7A7FA2860F0
:10290000002007B0BDE8F0836FF01200F9E76FF028
:102910000400F6E7901600207816002070B52DED23
:10292000048B84B006460D4603AA02A901A8FFF74E
:1029300073FF044688BBDDED028ADDED019A9DED53
:10294000039A28EEA80A09EEA90A09EE090A05F079
:1029500047FEDFED157AB4EEE70AF1EE10FAB0EEBD
:10296000408A1DD489EE880ADFED109AB1EE400A44
:1029700005F000FE20EE290AC9EE080A86ED000ADD
:1029800088EE880A05F02AFE20EE290A85ED000A65
:10299000204604B0BDEC048B70BD6FF00404F7E773
:1029A0006FF01504F4E700BFCDCCCC3DE02E6542BE
:1029B000F0B58DB00446FFF723FF002800F09E809D
:1029C000514D286806F04BFA0028C0F29A8028681A
:1029D0006A46002106F057FA286802AA012106F08B
:1029E00052FA286804AA022106F04DFA286806AABD
:1029F000042106F048FA286808AA052106F043FADF
:102A00000AAA2868414D062106F03DFA6846FEF7FD
:102A100027FC286857EC106BFDF7AEFF02460B460B
:102A200030463946FDF748FE0646E8680F46FDF792
:102A3000A3FF02460B4630463946FDF7F5FFFEF789
:102A400005FA206002A8FEF70BFC686857EC106BD3
:102A5000FDF792FF02460B4630463946FDF72CFE45
:102A6000064628690F46FDF787FF02460B463046AB
:102A70003946FDF7D9FFFEF7E9F9606004A8FEF7D3
:102A8000EFFBA86857EC106BFDF776FF02460B468C
:102A900030463946FDF710FE064668690F46FDF7D9
:102AA0006BFF0B46024639463046FDF7BDFFFEF789
:102AB000CDF9A06006A8FEF7D3FB51EC100BFEF792
:102AC000C5F9E06008A8FEF7CBFB51EC100BFEF750
:102AD000BDF920610AA8FEF7C3FB51EC100BFEF70D
:102AE000B5F904F11C01606104F11800FFF716FF4D
:102AF000012384F8203000200DB0F0BD6FF01200EB
:102B0000FAE76FF00400F7E790160020781600202F
:102B10001FB54FF0FF304FF0FF31FFF735FE0D4B83
:102B200001221A700C4A002313600C4A13600C4AED
:102B300013600C4B00241C60FFF72EFE0A4B0B4960
:102B40000094CDE9014303222346204606F08BF989
:102B500004B010BDA51900206C16002070160020CE
:102B6000741600206816002098C30008ECB800080E
:102B700030B54FF0FF308BB04FF0FF31FFF704FE60
:102B8000264B00241C70264B1B68A34241DD07EE38
:102B9000903A244A244DD2ED006A244A2449B8EEE2
:102BA000E77A2046C6EE877AD2ED006AC5ED007A54
:102BB000C6EE877A1F4AD2ED006AC5ED017AC6EEED
:102BC000877A03229FED1C7A77EEC77AC5ED027AE9
:102BD00003931A4B0094CDE90143234606F043F9D1
:102BE000A868FDF7C9FECDE908016868FDF7C4FED5
:102BF000CDE906012868FDF7BFFE114B0094CDE931
:102C00000401CDE901430A4923460322204606F088
:102C10002AF90BB0BDE83040FFF7BEBDA519002072
:102C20006816002074160020781600207016002008
:102C3000ECB800086C160020C3F51C41C8C300089E
:102C4000F2C3000808B5074B0748186007F083FF78
:102C500028B9064806F0B9F96FF0120008BD002047
:102C6000FCE700BF9416002054B4000822C40008FA
:102C700030B585B0054603AA02A901A8FEF70CFBF2
:102C8000044630BBDDED010A9DED020A05F0A6FC0D
:102C9000DFED117A9FED117A20EE270AC0EE077A58
:102CA000B2EE077A77EEC77A9FED0D7AF5EEC07A2D
:102CB000F1EE10FA48BF77EE877AF4EEC77AF1EEBC
:102CC00010FAA8BF77EEC77AC5ED007A204605B0A6
:102CD00030BD4FF0FF34F9E700003443DB0F4940CB
:102CE0000000B4432DE9F04F91B08407009302F047
:102CF00004030293C2F3C20303F10103DDF8688009
:102D0000039205460E46059340F0BA81041D30B18A
:102D1000072909D86FF01B0011B0BDE8F08F01F052
:102D200007063444C6F10806009B4FF00009591EFF
:102D30004FF0040A4FF0FF330193CDF810904F4647
:102D4000CB4653460DB1009820600598002800F34B
:102D5000E8809848009A824203D397488242C0F0A4
:102D6000E080039AA4EB050E92074FEA9E0000F163
:102D700003810F2F00F2B180002D00F0058107F1D3
:102D800040020DEB020C019A0CF8200C0CF8102CF0
:102D9000049801300490E7E07A285DD84B280ED8DB
:102DA000472859D829282DD8252852D054D820284A
:102DB0007AD02338D0F1000B4BEB000B74E04C3889
:102DC0002E2849D8DFE800F070484848484848486D
:102DD000484848484B484848484848484859484B5C
:102DE0004B595959704B6D487048184B18484882D8
:102DF0007F4B48484B487F0000204FF0000B4FF0BE
:102E0000040A38E02A38C0B2012202FA00F010EABF
:102E10000E0F49D110F0625C2FD110EA020B43D0A3
:102E20006046013C5444B4FBFAF40AFB04F4002D60
:102E300061D0A3EB050CA444B4453FF66BAF00286A
:102E400068D1042B47D158F8043B23600434042391
:102E50002AE0019A013A01924FF0000B24E011F8A8
:102E6000010C6C2834D111F8023C00206C2B8346F5
:102E7000C5D14FF0080A5346D3E708F1070828F0F8
:102E800007080734F8E802AB24F0070435B10698C8
:102E90002044B0423FF63EAFC4E900AB08344FF0E7
:102EA000000B4FF0080A534611F8010F002878D0A4
:102EB000BBF1000F7FF470AF2528F5D1019B0133E2
:102EC00001934FF0010B4FF0040AECE7584694E7EA
:102ED00000208346A5E7082B02D06FF015001BE702
:102EE00008F1070828F00708B8EC027B84ED007BA6
:102EF00008340823D8E768B9042B02D108F1040884
:102F0000A4E7082BE9D108F1070828F0070808F121
:102F10000808EDE705980138059058F8040B009073
:102F200010E7039A900720D5A4EB050E4FEA9E0008
:102F30004FF0010CBEF5007FCFD20F2FCDD8F5B1E9
:102F400007F140020DEB020EC0B2019A0EF8200C00
:102F50000EF8102CBCF1000F3FF41AAF60F07F00A8
:102F60000EF8200C09F101090137C5F108020434FB
:102F700006924FF6DA7E97E74FF0000CDAE7BCF1E5
:102F8000000F01D00136EFE7029A0236002AEBD19A
:102F90000098CDE90631FDF713F9DDE90631064465
:102FA000E2E7631BB3F5806F97D23DB9A6F1080441
:102FB000E018B1E650B20008E4D10008029A286097
:102FC0009B082B709DF81030C2B1EB7085F8029011
:102FD000B9F1000F05D008A80022C5F1010C9742F5
:102FE0000ED1C5F101030DF120084FF0000A019345
:102FF0000DF1300B574512D1601B8DE66B70E5E784
:1030000010F8013B190608D50CEB040EB64503F089
:103010007F033FF67FAE04F8013B0132DFE7B9F1F1
:10302000000F03D098F90020002A17DB029BD3B1D0
:103030001AF80B2004F8012B0022019B18191044E8
:10304000B0423FF667AE98F8000004F8010B009913
:1030500003922046FDF792FA039A14440AF1010AFA
:1030600008F10108C6E798F8002055F822300093CF
:10307000029B45F822300098FDF7A2F8421CDCE7DD
:103080006FF00D0048E600BF014B1860704700BFAD
:1030900090020020F0B5094E016802460A27002080
:1030A0000B4601311C78355D6D0701D41360F0BD0E
:1030B00007FB0043A3F13000F2E700BF35BD000875
:1030C0002DE9F84F15469A46D378234A12F803B0F3
:1030D0006F2B81460F460BF0030B2BD026D8582BB5
:1030E0000CBF10260A26DDF8288032460023484609
:1030F0003946FDF74BFF092A08F1FF38D4B21ED834
:103100003034B145E4B277F1000788F8004001D3CC
:10311000D04511D82B789B0605D5082E15D1AB7854
:1031200043F00803AB704046BDE8F88F03F0F703A7
:10313000702BD5E70826D6E781460F46D5E7BBF1C9
:10314000010F0CBF37345734DBE7102EEBD1AB78CF
:1031500043F01003E6E700BF35BD0008034A53689B
:1031600023F0020353600020704700BF002004E0FA
:10317000084B1A6842F400721A601A6842F48062BE
:103180001A601A6842F480721A60034B034A1A608C
:10319000704700BF00200240EC02002000093D0003
:1031A0002DE9F84F814630480F4606F007F80646ED
:1031B00070B92E4CDFF8B8B00546A0464FF0010AB2
:1031C0005C4507D3B9F1000F02D04FF0010AFDB9F9
:1031D000BDE8F88F237B83B12368DB680BB1204601
:1031E0009847636883F806A023681B6943B963683E
:1031F00004221968204606F006F801361034DFE78D
:10320000204698470028F2D00AFA06F31D43F4E757
:10321000A94695FAA5F4B4FA84F40AFA04F326014F
:1032200008EB04146FEA030B25EA0305237B63B163
:1032300058F806301B698BB946440422736820464F
:10324000196809EA0B0905F0DEFF002DE1D11FB175
:103250006420002107F060FE4D46B8E720469847FD
:103260000028F2D1E8E700BFA01600206CB90008E2
:103270007CB90008014B53F82000704790B9000852
:1032800008B5034608462BB1044A136000F080FAE3
:10329000002008BD6FF01500FBE700BF940200207E
:1032A0000C4A0D48002310B513700C4A13600C4AE9
:1032B0004FF47A711360FFF7E3FF0A4B0A4918468F
:1032C0008B4200D310BD1A1A5C68121101322271B0
:1032D0001033F5E7A6190020AD91000898160020DC
:1032E0009C1600206CB900087CB9000870B50B4D25
:1032F000297841B90120FFF753FF094C094EB44228
:1033000002D301232B7070BD63685B791BB1236806
:1033100020469B6898471034F1E700BFA6190020AB
:103320006CB900087CB9000810B50446084805F0DF
:1033300045FF5CB1BFF35B8F064B53E8001F0139BB
:1033400043E80012002AF8D1BFF35B8F10BD00BF25
:10335000981600209C16002070B50A4B0A4C1B687A
:103360000A4E05469847A860B44200D370BD636812
:103370005B7923B1236829461B682046984710349F
:10338000F2E700BF940200206CB900087CB9000885
:10339000044A054B9B1AB1EBD30F34BF52F83100EE
:1033A0000020704764B800086CB900082DE9F04FA0
:1033B00087B004AFD7E90EA93D6B04460E4693468D
:1033C0009846BAF1000F1ED0C7F80490CDF80090CF
:1033D00010217A6B53460020FFF784FCB0F5006F94
:1033E000014611D340F2FF730393194B029300235C
:1033F000CDE9003317490222184605F026FF0C37A5
:10340000BD46BDE8F08F514604F007040BF0070BF2
:10341000E40044EA8B1444EA412444EA0554173595
:103420000D4425F00705ADEB050D04ADBAF1000F15
:1034300007D0CDF800907A6B534605F11000FFF7E6
:1034400051FC434622463146284605F0E5FED6E7C4
:1034500084C40008BCB80008406820B1034BC01AFF
:1034600040F3CF0070474FF0FF30704764B800085A
:103470000EB403B503AB014653F8042B0448019383
:1034800005F01DFF02B05DF804EB03B0704700BF0C
:1034900087920008CA0605D48B064CBF024903492F
:1034A000FFF7E6BF704700BF0CC30008BCC40008AC
:1034B0002DE9F04F89B004469DF84CB0179E0D469B
:1034C00090469946BBF1000F00F09E8006F0010384
:1034D000069306F00803059306F48073079305F03E
:1034E00090FE06F0020A024600283BD0934920468F
:1034F000FFF7BEFF0746BAF1000F08D016F0440FE1
:1035000032D18F492A462046FFF7B2FF0744069B77
:1035100053B18C4B8C4953F82B208C4B2046002AFE
:1035200008BF1A46FFF7A4FF079B002B48D0059B56
:10353000002B62D1B8F1000F64D085494246204685
:10354000FFF796FF0546149B3D44002B6BD1169B5D
:10355000002B71D1F30700F1EA8031462046FFF7D6
:1035600099FFD7E00746C6E77A4B18680028CDD008
:10357000794B4FF47A7A1B68B5FBF3F54FF461632E
:10358000B5FBF0F100FB11550AFB05F54FF03C0CC3
:10359000B1FBF3F203FB1211B5FBF0FEB1FBFCF340
:1035A00000FB1E550CFB13110AFB05F50091B5FB42
:1035B000F0F56A49CDE901E52046FFF759FFA5E797
:1035C000059BEBB1664B674953F82B202046FFF76C
:1035D0004FFF0546B8F1000F05D05D494246204631
:1035E000FFF746FF0544B9F1000FACD05E494A46EB
:1035F0002046FFF73DFF0544A5E74FF00009E1E74E
:10360000059DE7E745469EE7B9F1010F149B06D1FA
:10361000002B65D1169B002B7CD000250CE0002BE5
:10362000F8D052485DE05248149B5249224605F0BA
:1036300099FC169B002B69D0DFF84C81DFF84C9188
:10364000169F3146102F204628BF1027FFF722FF74
:103650004FF0000A554546DC159B49461A7820462E
:10366000FFF706FF4FF0010A1AF0070F03D141469A
:103670002046FFF7FDFE57453CD9159B494613F8F8
:103680000A202046FFF7F4FE0AF1010ABAF1100FF2
:10369000EAD1394920464FF0000AFFF7E9FE5246C9
:1036A000159B9A5C354B995C11F0970F08BF2E2241
:1036B00033492046FFF7DCFE0AF1010ABAF1100F88
:1036C0001DD01AF0070F03D141462046FFF7D0FE68
:1036D00057455246E4D841462046FFF7C9FEEBE77E
:1036E00023485D46A0E741462046FFF7C1FE0AF1A8
:1036F000010AAFE723492046FFF7BAFEC4E7159B4E
:103700003B441593169BDB1B169399D1BBF1000F1D
:103710007FF420AF6268A1682068D2E9002305F039
:10372000A4FD636800221A6009B0BDE8F08F074A63
:1037300005492046FFF79CFE0FE700BFC4C4000800
:10374000C8C40008A0B90008EDC40008BFC4000840
:10375000F0C40008A8160020A4160020D1C4000858
:10376000B4B90008F4C40008FAC40008A392000821
:1037700087920008BF92000809C5000835BD0008FF
:103780004DC3000805C5000807C50008FFC40008B0
:10379000074A00210123904206D8064A01B90123B5
:1037A0001360054B1860704740085B000121F2E789
:1037B00040420F00A4160020A8160020F8B5074FBD
:1037C0000D4604464618B44201D12846F8BD14F807
:1037D000011BBB6801485B689847F4E7E4B3000845
:1037E000014B036000207047FCB9000808B503488E
:1037F000034A0021121A05F0D2FD08BDD0030020B3
:10380000AC1900200748084A084908B5121A05F003
:10381000C8FD0748074A0849BDE80840121A05F0E4
:10382000C0BD00BF00000020CC030020E4D1000890
:103830000000002000000020E4D100082DE9F0473E
:1038400080468CB00D46002967D08B6805934B6885
:1038500004930B68039300243C4B3D4902930122DF
:1038600023462046CDE9004405F09DFD6B69059394
:103870002B690493EB680393364B35490094CDE9EB
:10388000014301222346204605F08DFDEB69039399
:10389000314B2F490094CDE90143012223462046B4
:1038A00005F081FDDFF8C0A0DFF8A4902F46264682
:1038B000FB6A0A93E31C0993BB6A0893A31C079352
:1038C0007B6A0693631C05933B6A0096CDE903432C
:1038D0000023CDE9016A012249461846043405F067
:1038E00062FD102C07F11007E2D12B6E03931B4BE6
:1038F00017490096CDE9016300231846012205F01F
:1039000052FDAB690393164B11490096CDE9016353
:1039100000230122184605F046FDB8F1010F0DD134
:10392000EFF30583103B03930E4B02930023CDE985
:10393000003307494246184605F035FD2946404602
:103940000CB0BDE8F04703F0DFBA00BF45C5000882
:10395000FCB8000874C50008A3C50008F5C5000838
:1039600004C6000832C60008B2C5000830BFFFF721
:10397000FDBF00BF054B1A6A9B689A421FBF044AED
:10398000536843F080535360704700BFE813002032
:1039900000ED00E0F0B585B00024434B0293CDE983
:1039A0000044234607460E4601224049204605F0C2
:1039B00015FD3F4B9B6ADB0465D53E4B3B490094AC
:1039C000CDE9014320462346012205F007FD1720DB
:1039D000374B9B6A1D050AD5374B029300231846C7
:1039E000CDE900333149012205F0F8FC1820304DB3
:1039F000AB6A9C051FD50024304B0293012223465D
:103A00002046CDE90044294905F0E8FCAB6BAA6AE1
:103A100010040FD503932A4B24490094CDE90143A8
:103A200001222346204605F0D9FC1FB1AB6A23F4DE
:103A30000043AB6219201E4B9B6A59050AD5214BE6
:103A4000029300231846CDE900331849012205F0FE
:103A5000C5FC1A20164A936A13F4807315D01A4BCA
:103A6000029300231846CDE900331049012205F0E6
:103A7000B5FC1B200E4A936A43F47F4393620023F4
:103A8000337005B0F0BD1620A2E7926A9204F1D51A
:103A90000E4A06490093CDE901321846012205F08D
:103AA0009DFC1C20E6E700BF45C60008FCB80008E6
:103AB00000ED00E05BC600086CC600087FC6000889
:103AC00098C60008ADC60008C8C60008E0C60008D1
:103AD0001FB50024374B029301222346CDE9004451
:103AE0003549204605F07AFC344B9B6A9A015ED535
:103AF000334B31490094CDE901432046234601224E
:103B000005F06CFC1E202D4B9B6ADB010AD52D4B6A
:103B1000029300231846CDE900332749012205F01E
:103B20005DFC1F20254B9B6A1C030AD5264B029384
:103B300000231846CDE900331F49012205F04EFC51
:103B400021201E4B9B6A59030AD5204B0293002368
:103B50001846CDE900331849012205F03FFC222028
:103B6000164B9B6A9A030AD5194B029300231846F9
:103B7000CDE900331049012205F030FC23200F4B22
:103B80009B6ADB030AD5134B029300231846CDE949
:103B900000330949012205F021FC2420074A936AD9
:103BA0006FEA03436FEA1343936204B010BD1D2014
:103BB000A9E700BF0FC70008FCB8000800ED00E04F
:103BC00027C700083AC7000854C7000872C7000892
:103BD00097C70008B1C700082DE9F04385B000245D
:103BE0004D4B0293CDE90044234680468946164654
:103BF0004A490122204605F0F1FB494B9B6ADF064A
:103C000040D5484B0094CDE9014320462346434923
:103C1000012205F0E3FB1124414B9B6A1D070AD5E5
:103C2000414B02930023CDE900333C490122184661
:103C300005F0D4FB12243A4DAB6A980724D5002432
:103C40003A4B36490293CDE90044234601222046EF
:103C500005F0C4FB6F6BAB6A190659D5344B2F497D
:103C60000397CDE90143009423460122204605F045
:103C7000B5FBB9F1000F03D0AB6A23F08003AB6250
:103C8000132403E01024C7E76FF01507244B9B6A49
:103C9000DA070AD5274B02930023CDE900331F49E9
:103CA0000122184605F09AFB14241D4B9B6A9B06C3
:103CB0000AD5214B02930023CDE900331749012295
:103CC000184605F08BFB1524154B9A6AD50602D4CD
:103CD0009A6A90070AD55B68190507D541463846A8
:103CE00000F07CFA10B180F3098802240C4B9A6A28
:103CF000920642BF5A6A22F400525A629A6A42F00D
:103D0000FF029A6220460023337005B0BDE8F083BD
:103D10006FF01507B4E700BFDCC70008FCB8000867
:103D200000ED00E0F2C700086CC6000825C80008D6
:103D30003DC8000853C80008E0C600082DE9F0415E
:103D4000724B5F68A2B00546C7F30804002383F3F3
:103D50001188BFF36F8F02F07F40B0F17F4F0CD11D
:103D600002F00C00082819D1694A6A490093CDE98C
:103D700001321846012205F031FB002635464FF08E
:103D80000008E31E8DF81F80092B00F2A580DFE8F4
:103D900003F00B999D95A3A3A3A3A3A1120746BF6C
:103DA0000D461E460126EAE75B4B5A49574FCDF8B0
:103DB0000080CDE9018300230122184605F00EFBA7
:103DC0008DF81F80FC6A14F0020405D0534BCDF827
:103DD0000080CDE9018306E0FB6A002B0BDA504B33
:103DE0000094CDE9014300234A490122184605F019
:103DF000F5FA00243AE0FB6A5B00FAD5494B4549E5
:103E00000094CDE9014301222346204605F0E6FA5D
:103E10007B69AA6943F480737B61BFF34F8FBFF363
:103E20006F8F7B6932F8022C23F480737B61BFF3C0
:103E30004F8FBFF36F8F4DF602739A4209D0BB6A62
:103E4000DBB26BB30DF11F0201212846FFF7C4FE60
:103E500036E02B680393344B0094CDE901432046B0
:103E600023462C49012205F0B9FA2C689DF81F3031
:103E70009BB96822294608A8FCF780FB0F9B002EFF
:103E80003ED0C3F3080222B96FEA53236FEA4323FB
:103E90000F9308A92046FFF7D1FC22B0BDE8F081BE
:103EA000BB6A13F47F4F05D00DF11F010120FFF70E
:103EB00071FD05E0BB6AB3F5803F9AD3FFF708FEBA
:103EC0000446D3E70DF11F020021BEE70DF11F01EB
:103ED0000020ECE7154B7AE7154A164B0D4917F40D
:103EE000F87F18BF1346103CCDE90334124B029300
:103EF0000023CDE900330122184605F06FFA78E778
:103F000023F4FF7323F00103C2E700BF00ED00E0DC
:103F1000A0C80008FCB80008CBC80008E2C8000828
:103F200003C9000811C9000830C900084CC90008BD
:103F300087C8000872C8000870C90008044B5A6995
:103F400042F010025A615A6922F008025A61704721
:103F500000ED00E0EFF30880EFF3098101B5724650
:103F6000FFF7ECFE01BD00BF0A4880F3088810206F
:103F700080F3118808484FF40861401880F30988DD
:103F8000EFF314800221084380F31488BFF36F8F8E
:103F900000F0B4F8002D0020801E0020084B9B6824
:103FA00083420BD1EFF3058343B1064B5A6842F0CD
:103FB00080525A605A6A22F400425A6203F0D4BF17
:103FC000E813002000ED00E001B506F01AFFBDE89F
:103FD000014025498A6882F8E1E04FF04000104432
:103FE000EFF3098C80E8F01F1EF0100F03D102F1EF
:103FF000A00080EC108A102080F31288BFF36F8F2E
:104000001A4F4FF000660A6A8A603E6092F9E1E05A
:10401000D2F898000023C2F8983080F311881EF07F
:10402000100F03D00023E1EE103A03E002F1A000EC
:1040300090EC108AEFF3148323F0040383F31488C5
:10404000BFF36F8F04B5104600F05EF9BDE8044081
:1040500002F1400090E8F01F8CF3098801B503F0ED
:10406000EDFCBDE801407047E813002004ED00E0DE
:104070001EF0040F0CBFEFF30880EFF30980816995
:1040800011F8021C0229FFD001B5724605F09BF918
:1040900001BD00BF40B2002807DB044A41090123EB
:1040A00000F01F00834042F82130704700E100E03B
:1040B00040B20028A8BF00F1604001F10101B8BF83
:1040C000064B4FEA0111ACBF00F5614000F00F0054
:1040D000C9B2B4BF195480F80013704714ED00E062
:1040E000044B054A23F07F039360BFF34F8FBFF368
:1040F0006F8F70470000000800ED00E008B5FFF783
:10410000EFFF104BD3F8882022F47002C3F8882008
:10411000D3F8882042F4A002C3F888204FF0404230
:10412000C3F83422BFF34F8FBFF36F8F0023E1EE4C
:10413000103AFFF75BFBFFF765FB00F0BBF803F0FD
:1041400005F800BF00ED00E04FF47D41C0F8E0103D
:1041500042F8203C009B42F81C3C0A49019B42F873
:10416000183C029B42F8143C21F001014FF080738F
:1041700042F8043C42F8081C0023203A0266C0F8CA
:1041800098307047E58F0008037B13F0020F124B45
:1041900003D190F8E120D20611D45A6B42F080424C
:1041A0005A63D0F8E03019075CBF43F00803C0F849
:1041B000E030037B43F002030373802070475A6BA7
:1041C00022F080425A63D0F8E0301A0744BF23F04F
:1041D0000803C0F8E030F0E700EF00E00A4A0346C9
:1041E000906878B113F1160FD0F8880005D0A0F1CF
:1041F00080029A4205D8834203D2814228BF002020
:1042000070470020704700BFE8130020104B9B68E8
:1042100083421AD1EFF30580B8B9EFF31181102270
:1042200082F31288BFF36F8F1A7B22F002021A7397
:10423000EFF3148323F0040383F31488BFF36F8F29
:1042400081F31188BFF36F8F70476FF015007047CF
:10425000E813002008B504460E4615460023E1EE9B
:10426000103AEFF3148323F0040383F31488BFF3AD
:104270006F8FBFF36F8F0B4B986003F0DFFB20460F
:1042800000F042F82C4686F309880020034B98473B
:104290002046002100220023014C204709940008F9
:1042A000E58F0008E8130020014B10221A617047C7
:1042B00000ED00E0044800231021C2180133532B05
:1042C00082F80013F9D1704700E100E008B5EFF380
:1042D0000583064A103B02EBC30152F833004968DC
:1042E0008847BDE80840FFF745BB00BF8CB4000815
:1042F000024B034A0348012100F09CB80000012052
:1043000000000020FCB9000810B50446FFF73CFF90
:10431000D4F8882003460548D21AC0E90023044B8C
:104320008360BDE81040012100F08EB8D81600204F
:1043300000000B151FB5144AD2F89030C3F30723C1
:10434000013B98420FD9114B029300230390CDE912
:10435000003318460E49012205F07AF86FF0150077
:1043600005B05DF804FBC2F898000B6823F01F034A
:10437000034343F01003C2F89C308B6843F0010301
:10438000C2F8A030ECE700BF00ED00E087C90008EC
:10439000F4B80008F0B50E4689B01F460446002563
:1043A000B54212DA606838B3BFB1431E18420FD06D
:1043B000134B02930023CDE90033124903950122E8
:1043C000184605F045F86FF01502104609B0F0BD2B
:1043D0007F28EDD921680B42EAD12368059305F0C7
:1043E00027F8A36805A90343D0B20793FFF7A2FFFC
:1043F00010F1160FE7D0421C01350C34D0E700BF96
:10440000ADC90008F4B80008044B0522C3F8942095
:10441000BFF34F8FBFF36F8F704700BF00ED00E019
:10442000BFF35F8F024B0022C3F89420704700BF98
:1044300000ED00E010B5034C01232278FFF7AAFF3E
:10444000207010BDA819002008B50B4A002312786F
:10445000FFF7A0FF10F1160F07D0084A0021D2F88D
:104460009030C3F30723984200DB08BDC2F89800E0
:10447000C2F8A0100130F2E7A819002000ED00E01A
:104480002DE9F04357485849D0F890300D68C3F3F0
:1044900007239D4285B000F2A180FFF7C1FF496864
:1044A0000022954201F10C011AD1504C504F257059
:1044B0006846FFF795F9DFF83C81DFF83C91064646
:1044C0000025AE421FD1237846490020D1F8902024
:1044D000C2F3072293427BDBFFF796FF00204CE0FC
:1044E000C0F8982051F80C3C23F01F03134343F00D
:1044F0001003C0F89C3051F8043C43F00103C0F8AD
:10450000A0300132CDE7009800EB05114FEA051C01
:10451000CB683B40B3F5000F44D00AD8B3F5001F79
:104520002ED0B3F5800F34D0B3F5801F10D00135F5
:10453000C7E7B3F1807F3ED0B3F1007FF7D150F8E9
:104540000C3088684A6804F073FF40F4802009E06A
:1045500050F80C3088684A6804F06AFF40F08850D0
:1045600040F43020039001A92078CDE90123FFF722
:10457000E1FE002828DA6FF0150005B0BDE8F083F1
:1045800050F80C3088684A6804F052FF40EA08008E
:10459000E8E750F80C3088684A6804F049FF40EAC0
:1045A0000900DFE750F80C3088684A6804F040FFE3
:1045B00040F08270D6E750F80C3088684A6804F002
:1045C00037FF40F08870CDE7237801332370AEE7E2
:1045D000C1F89830C1F8A000013377E74FF0FF3001
:1045E000CBE700BF00ED00E008BA0008A8190020E2
:1045F0000000F0FF0000081100000206014B1860E7
:10460000704700BFA002002038B5084C00252046A6
:1046100006F005FB04F11400013506F0E3FB052D5F
:1046200004F12404F3D1002038BD00BFE4160020BB
:1046300038B5064D00242846013406F0D3FB052C7E
:1046400005F10C05F7D1002038BD00BF98170020F8
:1046500038B5064D00242846013406F0E0FA052C52
:1046600005F11405F7D1002038BD00BFD417002094
:104670000B4B0C4A30B51C460025191BB1F58C6F4D
:1046800001D9002030BD506803F1F001C3E93C209E
:10469000016003F58C7303F8045C5160EDE700BF23
:1046A000B8040020A402002070B590F8DC10036E5E
:1046B00001295A68B0F8B83086B0044604D00229FF
:1046C00024D0002006B070BD190102EB0313B0F82E
:1046D000DE0051589D880144B4F8DE602068AE1BAE
:1046E000B6B2324605F04CF8002815DCE9D0104B84
:1046F0000393104B02930023CDE90460CDE900330E
:104700000D490122184604F0BAFEDAE7B0F8DE30AF
:10471000416B058F1944DFE7B4F8DE30184480B2EE
:104720008542A4F8DE008CBF00200120CAE700BF4C
:1047300049CA000852CA0008E4B8000830B50D465E
:1047400085B0044600284CD0036E002B49D071B1CF
:104750001A68039201290CBF234A244A24490023E2
:10476000CDE9013200930222184604F088FE236E40
:104770005B691BB16268294620469847D4F820211E
:1047800000233AB1B4F82821012A9CBFC4F8203193
:10479000A4F82431C4E913332366A36504F1780037
:1047A00006F00DFB04F1E00006F0EEFA04F1F00073
:1047B00006F005FBBFF35B8F04F1BC0353E8001F59
:1047C00021F0010143E80012002AF7D1BFF35B8F0B
:1047D00084F8C05004F1C40005B0BDE8304002F0D8
:1047E00067BE05B030BD00BF6ECA00087ACA0008B7
:1047F000E4B800082DE9F04FA0F59674A0F58E718D
:104800008BB005462022206804F0D4FF002840F336
:10481000628100272086B846228EBBB29A4205D814
:1048200028460BB0BDE8F04F02F0E4BF14FA87F35E
:10483000B4F840101A7C0023DEB28E4215D3E3890F
:10484000A189994219D1A54B02930026CDE90066B2
:10485000A34933460222304604F011FEE681668702
:10486000A4F84A60C4F8206105E0E06B805D8242F4
:1048700003F10103E0D10137CEE7B4F84A00B4F800
:104880004810884201D1974BDEE7A168CA54E389FA
:10489000B4F838B006935E1CB6B25E45E681C0F04F
:1048A0008980D4F80890616BA6EB0B0A5A4609EB95
:1048B0000A0004F04FF900287CD15E450AD1A5F525
:1048C00096730022DA8125F8F22C25F8E22C45F8BF
:1048D0000C2CD0E7D4F820316BBB09F80A30A5F1D5
:1048E000D600C5F1C80C4FF0140E30F8026F00224C
:1048F00091B28E4204D801339BB2032BF5D1DEE78F
:104900005CF810100EFB0211013291F80490B9F11D
:10491000000FEDD1A4F82831636C734AC4F820115C
:104920001A60636CA2685A600223A4F84A302046D9
:1049300004F000FEC3E7B4F8263193B1B4F84A108E
:10494000626CAAEB030A09EB0A0342F82130228FBA
:10495000E3899B1AA268D054B4F84A300133A4F812
:104960004A30204604F0E6FDA4F80E80A4F83A8010
:10497000A4F84A80C4F820817DE7626B515CA2688C
:104980003244013312F8012C8A423FF474AFD9B299
:104990005945F2D355F80C2CA5F5967362B9C5F1BB
:1049A000C801A5F1D60A09913AF8021F08914FF003
:1049B000000E6BE00023EAE792F80CC0002081B201
:1049C00061456DD30021B3F82621002900F08180D4
:1049D000B3F84AC0586C002A6ED1434A40F82C20E4
:1049E000B3F84A200132A3F84A200022A3F8262176
:1049F00041E7099951F81A10142000FB0E1999F893
:104A0000041007918E423FD1996805914FF0000C38
:104A100007991FFA8CF0884223D3A4F82821069A1C
:104A2000A3890599C4F82091023292B29B1A0B44D3
:104A3000A4F824211846013AFBF7A0FDB4F84A1067
:104A4000626C42F82100A289A3681344002203F893
:104A5000012CB4F84A30A4F826210133A4F84A30D6
:104A600009E7D9F80000059910F80C0011F80CB00E
:104A7000834506D099F80DB0BBF1000F04D03F2854
:104A800002D10CF1010CC3E70EF1010E08981FFAD8
:104A90008EF18842ADD8013292B2032A84D1EAE67F
:104AA000916811F800E099683144013011F8011C57
:104AB000714584D1012186E79968B21A013A1144FF
:104AC00040F82C10D9899A680A44002102F8011C88
:104AD00086E701328AE70BB0BDE8F08F88CA00088C
:104AE000E4B800089FCA00084CC3000838B50D465A
:104AF00004464FF4A072002104F05CF82B68636058
:104B00006B68A3602B89A381EB6963642B8CA4F889
:104B10004830EB6863632B7C23876B69E3632B7EF0
:104B2000A4F840306B6A63652B8DA4F85C300025D7
:104B300004F1BC03BFF35B8F53E8002F43E800513F
:104B40000029F9D1BFF35B8F0122294604F1C4008B
:104B500006F06CF804F596700E4906F0E9F804F1D9
:104B600068000D4906F0E4F804F178000B4906F0FE
:104B70001AF904F1A8000A4906F0DAF804F1E00095
:104B8000084906F0D5F804F1F000074906F00BF9E2
:104B9000284638BDF5470008A3950008AD940008E5
:104BA0009D940008E59500082595000810B502467B
:104BB000002408461160D48104495487A2F84A4071
:104BC000C2F8204104F0B7FD204610BD63960008EE
:104BD00070B5036805460E46002B38D04B6863B3AA
:104BE0000A8912B91D498B4227D1318AF9B103EBE9
:104BF00002129A4224D105F1BC02BFF35B8F52E846
:104C0000003F43F0010142E800100028F7D1BFF354
:104C10005B8F13F001041DD105F1C40002F0A8FC64
:104C20006E6605F1680002F0E5FD204670BDF16892
:104C30000029DCD00A488142D9D06FF01500F5E791
:104C4000998811B9D9680029F7D01033D1E74FF00E
:104C5000FF30EBE76FF00F00E8E700BF28BA00086D
:104C600028BA000838B50D460446B822002103F0E2
:104C7000A1FF2B6823606B68636004F1280007497B
:104C800006F091F804F15800054906F051F8204665
:104C9000294600F0E1F804F1080038BD9D980008AD
:104CA000979800087FB50BAB05930393054B0293D0
:104CB0000023CDE9003302221846FEF777FB07B048
:104CC0005DF804FBBECA00082DE9F047074686B030
:104CD0000C4683685B6C002B00F08A8098470028A4
:104CE00040F38680BB685B6B002B42D194F8AC80AC
:104CF0004FF0140A0AFB084A08EB8805BAF874203A
:104D0000BAF86C30AD0005F168099B1A6C35DAF819
:104D10007820A14425449BB2D31A294605AA4846C7
:104D200004F0B0F90646C8B9494B4A490090CDE9AC
:104D3000010302220346FFF7B5FF324629464846E3
:104D400004F0D6F9CAE91B66CAF87460DAF878305C
:104D500005AA2946484604F095F9064620680599B3
:104D600083689B69E3B900222946484604F0C0F9EC
:104D700003E0384698470028B8D1BB685B6A9BBB04
:104D8000B4F89A20B4F896309A4234D154F8580BBB
:104D900004F091FD204606B0BDE8F04702F02ABDC0
:104DA00032469847021EDEDD2946484604F0A0F947
:104DB000142303FB084804F12800D8F87820B8F839
:104DC0007450B2FBF3F1B8F86C305B1B9BB2D21A93
:104DD000914204D2C822002302F07CFDCDE70022DC
:104DE000002302F0ABFDC8E7384698470028C7D13A
:104DF00006B0BDE8F0879B1A04F1900604F19A070B
:104E00009BB205AA3946304604F03CF902462068B8
:104E1000059983685B692BB900223946304604F056
:104E200067F9E5E79847051EF6DB2A46394630461E
:104E3000A43404F05DF9BFF35B8F54E8003F5B1BC3
:104E400044E80032002AF8D1BFF35B8FD0E700BFFF
:104E5000BECA0008DCB8000810B54B69A3EB930389
:104E6000C0F8B0308B68CA6883660023C0E91B3382
:104E700052088267436704468868C4F88C2010444F
:104E8000C4E91F03C4E92133D1E90420C4E926336E
:104E9000C4E92423C4F8A00004F1A402BFF35B8F8B
:104EA00052E8001F42E800300028F9D1BFF35B8FC1
:104EB000206804F005FD206804F0FDFC206883688C
:104EC00023B19B6C13B1054922469847214604F152
:104ED0000800034ABDE8104004F002BCC94C0008B9
:104EE00028BA000810B586B0104C204605F033FEF5
:104EF000034658B90E4A0090CDE901020D4901223E
:104F000004F0B5FD6FF0120006B010BD0A4A92E839
:104F1000030004AB83E80300A26812681AB11946C3
:104F200020469047F0E76FF05700EDE720B3000808
:104F300003CB00087CB8000884B900081FB53F28DF
:104F400000F01F034FF0010202FA03F30DD9002411
:104F50000B4B039002932046CDE9004409492346B8
:104F600004F085FD204604B010BD074A1F2894BFF9
:104F70005269526B93430CBF01200020F3E700BF3E
:104F8000ECCA00087CB80008000401401FB53F28A7
:104F900000F01F034FF0010202FA03F30ED90B4B8E
:104FA000029300230390CDE900331846084904F02A
:104FB0005EFD6FF0150005B05DF804FB1F28054A83
:104FC00002D853610020F6E75363FBE7ECCA000800
:104FD0007CB8000800040140044B1844002301334E
:104FE000994200F8012BFADC704700BF0003002053
:104FF0002DE9F041104F054600264FF001086B786F
:10500000F4B2A34201D8BDE8F0812B781C442046BD
:10501000FFF794FF68B12046FFF7B8FF57F8343028
:105020003BB107EBC40204F01F04516808FA04F016
:1050300098470136E3E700BF38180020034660B107
:10504000B0FA80F2C2F11F02D2B205498856054A71
:1050500011680B431360FFF71DB8FF22F5E700BF8F
:105060000003002000040140024A136823EA000301
:105070001360704700040140032921D8DFE801F0E4
:10508000020C10190F4B9A6822EA00029A60DA6843
:1050900022EA0002DA6070470A4B9A680243F5E799
:1050A000084BDA680243DA609A6822EA00029A60E2
:1050B0007047044B9A6802439A60DA681043D860DC
:1050C000704700BF0004014030B5B0B1B0FA80F3C2
:1050D000C3F11F03DBB20B4850F833408C4204D1BC
:1050E00000EBC3056D68954205D044B940F8331014
:1050F00000EBC3004260002030BDFF23EBE76FF000
:105100000F00F9E73818002060B1B0FA80F3C3F15E
:105110001F03DBB2044A002142F8331002EBC30242
:1051200051607047FF23F5E73818002000F00302B4
:10513000043292000F23934043EA900000F00303EF
:105140000233064A52F82320030C02EA104093FA75
:10515000A3F3B3FA83F3D840704700BF00000140C7
:10516000024B1868C0F38020704700BF0010024057
:1051700038B52F4B18680B88C3F30B030C2B0D4667
:10518000144624D813B96FF0850031E0013B0B2B96
:10519000F9D801A252F823F0E55100081F52000887
:1051A000C95100081B520008875100081F5200080F
:1051B000E5510008E5510008E5510008F3510008E9
:1051C000035200080F5200084FF4FA400AE003F6B9
:1051D000B873C3F30B03182BD5D8164A22FA03F37E
:1051E000DB07D0D520602B68B3F5805F19D2002093
:1051F00038BD00F0BBF8142358430723B0FBF3F08D
:10520000F0E700F0B3F8142358434008EAE700F051
:10521000ADF8142358438008E4E70748E2E700208C
:10522000E0E7C3F313330133B0FBF3F02060DEE7B4
:10523000EC020020110111010024F400F8B5474FE1
:10524000474C00F0A9F8384604F01AFD01F09EFD25
:10525000A368444AC3F303131578D35C47FA05F5F2
:1052600020FA03F6AE4202D2284601F0DDFDFFF738
:1052700077FF012807D0236843F480732360FFF78A
:105280006FFF0128FBD1D4F8943043F00103C4F838
:105290009430D4F894309907FBD5A36803F00C033D
:1052A0000C2B1AD1FFF75CFF012807D0236843F4C9
:1052B00080732360FFF754FF0128FBD1A36823F01C
:1052C000030343F00103A360A36803F00C03042B62
:1052D000FAD1A36823F0F003A360236823F080735E
:1052E000236023689A01FCD4E36823F4003343F07D
:1052F0006053E360E36843F48033E360E36823F4DE
:10530000C003E360E36843F48013E36000F032F825
:10531000236843F08073236023689B01FCD5A36856
:1053200023F0F003A360A36843F00303A360A36822
:1053300003F00C030C2BFAD1AE4202D3284601F045
:1053400073FD094B1F60A36823F4E063A360A368A7
:1053500023F46053A3600020F8BD00BF00B4C40470
:1053600000100240BAD00008EC020020004870474C
:105370000024F400054B0649DA681140054A0A4347
:10538000DA60DA6842F08072DA607047001002403A
:105390008C80FFF902140002064B9A6D42F0805295
:1053A0009A659B6D82B003F080530193019B02B01C
:1053B000704700BF0010024008B5074805F0CBFB5E
:1053C00038B10648FFF71AF90448FDF75DFE0020E2
:1053D00008BD6FF01200FBE7E4B30008E1530008DA
:1053E0000A2838B5074D044604D1AB680D215B6827
:1053F00028469847AB6803485B68E1B29847204667
:1054000038BD00BFE4B30008F8B505460E460D48A8
:105410000D4C0E4F4FF0FF324FF0FF3302F082F889
:10542000BC4204D30748BDE8F84002F041B8236805
:105430000BB1AB4203D16368314628469847083424
:10544000EEE700BFB40300207CB9000884B900086F
:105450002DE9F04105460E4617460E480E4CDFF882
:105460003C804FF0FF324FF0FF3302F05BF84445D1
:1054700004D30848BDE8F04102F01AB823680BB124
:10548000AB4204D163683A4631462846984708340F
:10549000EDE700BFB403002084B9000884B9000818
:1054A0002DE9F04707468A4600244FFA84F917F899
:1054B000093013B96FF015004EE02E2B04F10102F4
:1054C00001D01446F1E7B9F1000FF3DDB9F1010F96
:1054D00005D007EB090313F8023C352BEAD8E4B2F8
:1054E0000021661C294876B20D468846BB5DABBBE1
:1054F000013C274ADFF89CC064B203210A26A9EBCD
:105500000403032B3B5DA3F13003D8B204BF624612
:10551000E8210928CED803FB01F04FEAE37E02FB25
:105520000E00A3FB023E5B1904F1FF3470441D46DC
:1055300064B206FB01F3A2FB062140EB0808194404
:10554000631CDCD14FF47A72002328464146FBF7F6
:105550001DFDCAE900010020BDE8F087303BDAB24A
:10556000092AA7D803FB01F24FEAE37C00FB0C22D7
:10557000A3FB003C5B19624442EB08081D460A226B
:1055800000230136FBF702FD76B2AFE7AA5057635E
:10559000AA2669E10010A5D410B50C4600F076F9F2
:1055A000002808DBD4E90001034A0023FBF79EFC36
:1055B000C4E90001002010BD35A91D007FB51F4BB7
:1055C00000241B88ADF8003006460D468DF80240D9
:1055D000FAF7F6FD052803D86FF0150004B070BD8A
:1055E0003388ADF8003001AA0A21684604F03BFD7B
:1055F0000028F1DB019B172BEED82B707388ADF8D8
:10560000003001AA0A21684604F02DFD0028E3DBE2
:10561000019B3B2BE0D86B7002A9301D00F0AAF96A
:105620000028D9DB029B4EF660229342039A72F166
:105630000002D1D26B802046D0E700BF8CB90008B1
:1056400073B51F4B00241B88ADF8003006460D468D
:105650008DF80240FAF7B4FD062803D06FF015006C
:1056600002B070BD3388ADF8003001AA0A21684647
:1056700004F0F9FC0028F1DB019B5A1E1E2AEDD82C
:105680002B717388ADF8003001AA0A21684604F036
:10569000EAFC0028E2DB019B5A1E0B2ADED86B7164
:1056A000B388ADF8003001AA0A21684604F0DBFC9B
:1056B0000028D3DB019B632BD0D8AB712046CFE70A
:1056C0008CB90008092973B50546144603D86FF054
:1056D000150002B070BD83681B78562B58D0412B43
:1056E000F5D102F1300640683146FFF767FF002828
:1056F000EDDB2B691B784E2B01D0532BE7D1AB6927
:105700001B78452B01D0572BE1D1E8682146FFF7E4
:10571000C7FE0028DBDB686904F10801FFF7C0FE63
:105720000028D4DB296909784E29D4E9003202D057
:105730005B4262EB4202C4E90032A969097845295B
:10574000D4E9023202D05B4262EB4202C4E9023287
:105750006946E869FFF720FF0028B8DBDDE9003281
:10576000002AB4DC6361286A694600F003F9002866
:10577000ADDB084A009B01999A424FF000028A4132
:10578000A5D32361686A3146FFF75AFF00289EDBE4
:1057900000209EE73F7E0500F0B5044600698DB00D
:1057A00000F15803182601A901940293ADF80C608A
:1057B00004F049FC002860DB676825693246002157
:1057C00001A803F0F7F93B68019305F5EC73039327
:1057D0004FF44073049305F59B63059301A940239F
:1057E00005F590700693FFF73DFAC5F8180120699A
:1057F000019000F5CB6302934FF48073ADF80C3049
:105800001F4B049302238DF81430002306938DF868
:105810001C3000F5EB6308932023ADF82430194BBE
:105820000A9301A9032300F5A360ADF82C30FFF71C
:105830005DF9002821DB2569134AD5F8180167684E
:10584000002303F055FF041E15DB05F5A366D5F80C
:1058500018113046FFF7AAF9044620B97968304696
:1058600003F00BFF0446002C05DA074AD5F81801AF
:10587000002303F0B9FF04EAE4700DB0F0BD00BFEF
:10588000100300205CBA0008A08601002DE9F84F43
:105890000746884600235DB27A5D0ABB4FF0FF35AC
:1058A00097F800903148A9F12D020021013BD2F177
:1058B000000E5BB24EEB020E0C460E464FF00A0A8B
:1058C0005AB2724512DA002D2DDAB9F12D0F02D13C
:1058D000644266EB4606C8E900460020BDE8F88F42
:1058E0002E2A03F10101DBD00B46D4E7FA5C303AF3
:1058F0005FFA82FCBCF1090F03F1FF3332D802FBDF
:1059000001FC4FEAE27B00FB0BCCA2FB00B294440B
:105910001BEB040B0AFB01F2A0FB0A015C464CEBFB
:1059200006061144CCE7013511486DB200217B5DBC
:10593000002BCAD0303BDAB2092A13D803FB01F29C
:105940004FEAE37C00FB0C22A3FB003C1B196244E2
:1059500042EB06061C460A2200230135FBF7C6FA75
:105960006DB2E4E76FF01500B8E700BF00CA9A3BDC
:1059700000E1F50510B50C46FFF788FF002808DBAD
:10598000D4E90001034A0023FBF7B0FAC4E900019F
:10599000002010BD40420F002DE9F843D0F80480EC
:1059A000D0F81090D8F8080017460D461E4604F0AF
:1059B000B7F8B7F5001F044616D12846D8F80840B6
:1059C000FFF7B4FB84420CD1294604F0A9F8044641
:1059D000FFF74AFB2046FFF797FB00212046FFF721
:1059E0004BFB0020BDE8F883B7F5800F20D0B6F15F
:1059F000806F19D0B6F1C06F18D0B6F1007F1AD100
:105A0000022610494A462046FFF75EFBB0B9D8F897
:105A10000810284604F089F820463146FFF72CFB91
:105A20002046FFF70BFBDCE70126EAE70326E8E761
:105A30006FF08500D6E76FF01500D3E76FF00F0029
:105A4000D0E700BFF3A2000838B5036904465860E8
:105A50000A4D284605F07FF860B1AB6861681B68A5
:105A60000C3123B12846984700EAE07038BD6FF04A
:105A70005700F9E76FF01200F8E700BF20B3000805
:105A80001FB5026992F860306BB9094A0949009361
:105A9000CDE901321846012204F069FC6FF00400E0
:105AA00005B05DF804FB136B0B600020F8E700BF46
:105AB000F7CB0008B4B800087FB542680369D26824
:105AC00083F8621031B9136823F44013136007B0F0
:105AD0005DF804FB049103680393054B02930023D4
:105AE000CDE9003303490122184604F040FCEEE7FB
:105AF00015CC0008B4B80008F0B504464368066940
:105B00001F48DD680F465968836887B0DB6800224C
